:10000000B70F0100970501009385C5FF1703010095
:100010001303430193020000130C8000130141FEFF
:10002000232CF101232AE1012328D1012326C10138
:10003000232471002322610023205100EF00C0041B
:10004000832201000323410083238100032EC1008A
:10005000832E0101032F4101832F81011301C1016F
:1000600093932200330E7300931B2500B38E75010A
:1000700003AF0E002320EE0123A0FE0193821200A5
:10008000E3CE82F96F000000130181FF232291006B
:1000900023202101B702010013037000138905001A
:1000A00093132300330E7900832E0E0063D65E0077
:1000B00093820E00130F03001303F3FFE35203FEBA
:1000C00013050F000329010083244100130181005F
:0400D0006780000045
:020000021000EC
:10000000F9FFFFFF03000000F7FFFFFF08000000FB
:100010000F000000F0FFFFFF0000000003000000E1
:00000001FF
