:100000001301C1FD2320910023222101232431016A
:100010002326410123285101232A6101232C710148
:10002000232E810123201102130C050093040500E7
:100030001389050093090000130A0000635A2A037C
:10004000931A2A00B38A9A0083AB0A00931A2A00F3
:10005000B30A5C0103AB0A0013050B0093850B0088
:10006000EF00C006B389A900130A1A006FF01FFD44
:1000700013850900EF00C00D83240100032941000E
:1000800083298100032AC100832A0101032B410136
:10009000832B8101032CC101832001021301410242
:1000A00067800000130181FF2300910023222101BA
:1000B00093040500138905002300990083040100BF
:0C00C0000329410013018100678000004B
:1000CC00130101FD2326810213040103232EA4FC3A
:1000DC00232CB4FC232604FE232404FE8327C4FD16
:1000EC0063D60702930710002324F4FE8327C4FD74
:1000FC00B307F040232EF4FC6F0040010327C4FE2D
:10010C00832784FDB307F7002326F4FE8327C4FD61
:10011C001387F7FF232EE4FCE39207FE832784FE6C
:10012C00638807008327C4FEB307F0406F0080008C
:10013C008327C4FE138507000324C10213010103A6
:04014C0067800000C8
:10015000130101FD2326110223248102130401034C
:10016000232EA4FC232604FE6F0000018327C4FE77
:10017000938717002326F4FE8325C4FE0325C4FEBF
:10018000EFF0DFF4130705008327C4FDE340F7FE1B
:100190008327C4FE138507008320C1020324810244
:0801A000130101036780000058
:1001A800130101FE232E1100232C810013040102E8
:1001B80093055000B707010013850700EFF0DFE350
:1001C8002326A4FE93055000B707010013854701B5
:1001D800EFF09FE22324A4FE0327C4FE832784FEB6
:1001E800B3A7E70093F7F70FA303F4FE030774FE22
:1001F800B70701009385870213050700EFF01FEA90
:040208006F00000083
:020000021000EC
:100000000500000002000000FDFFFFFF07000000E8
:0400100006000000E6
:1000140006000000FFFFFFFF0100000000000000D9
:0400240003000000D5
:04000003000001A850
:00000001FF
