:100000001301C1FD2320910023222101232431016A
:100010002326410123285101232A6101232C710148
:10002000232E81012320110293040500138905006A
:1000300093091000130A0000930AF9FF6388090A64
:100040009389F9FF130B0A0063525B0513132B000E
:1000500093031B0093932300B38B6400338C7400D1
:1000600003AE0B00832E0C0063C6CE01130B1B00E6
:100070006FF09FFD130F0E0023A0DB012320EC0186
:1000800093891900130B1B006FF01FFC938AFAFF72
:10009000638E09049389F9FF138B0A00130BFBFF8E
:1000A00063424B0513132B0093031B009393230010
:1000B000B38B6400338C740003AE0B00832E0C00F2
:1000C00063C6CE01130BFBFF6FF09FFD138F0E0075
:1000D0002320CC0123A0EB0193891900130BFBFF14
:1000E0006FF01FFC130A1A006FF05FF58324010004
:1000F0000329410083298100032AC100832A0101C9
:10010000032B4101832B8101032CC10183200102B8
:100110001301410267800000130101FE23209100BA
:1001200023222101232431012326410123285101C7
:10013000232A6101232C7101232E11009304050051
:100140001389050093090600130A190013132900E7
:10015000B38A640003AB0A00930B090063563A03A9
:1001600013132A00338C6400032E0C0063466E01C7
:10017000130A1A006FF09FFE130B0E00930B0A0078
:10018000130A1A006FF09FFD635C790183AF0A00C8
:1001900023A06A0113932B00B383640023A0F3010F
:1001A00013091900B3832941130E100063567E0012
:1001B00013060900EFF05FF68324010003294100D4
:1001C00083298100032AC100832A0101032B4101F5
:1001D000832B81018320C10113010102678000008C
:1001E0001301C1FE23209100232221012324310188
:1001F0002326410183200101930405001389050092
:10020000930900006302390313932900338A6400C1
:1002100003250A0083250A00EF00C0022320AA005C
:10022000938919006FF01FFE832401000329410008
:1002300083298100032AC1008320010113014101A8
:0C024000678000003305B50267800000F5
:10024C00130101FC232E1102232C8102130401043F
:10025C00B70701009387070083A5070003A6470093
:10026C0083A6870003A7C70083A70701232EB4FC2E
:10027C002320C4FE2322D4FE2324E4FE2326F4FEF2
:10028C009307C4FD13065000930500001385070067
:10029C00EFF0DFE7B70701009387470183A507005D
:1002AC0003A6470083A6870003A7C70083A70701FF
:1002BC002324B4FC2326C4FC2328D4FC232AE4FCEA
:1002CC00232CF4FC930784FC930550001385070042
:1002DC00EFF05FD293070000138507008320C10362
:0C02EC000324810313010104678000005B
:020000021000EC
:100000000500000002000000FDFFFFFF07000000E8
:1000100006000000070000000600000005000000C8
:0800200002000000FFFFFFFFDA
:040000030000024CAB
:00000001FF
