:10000000170102001301010017050100130585FF08
:1000100097050100938505FF13064000EF00000CD3
:1000200017030100130343002320A3001705010059
:10003000130545FE970501009385C5FDEF00000AF5
:1000400097030100938383FE23A0A300832403006E
:1000500003A90300635C990097090100938989FC57
:100060009304A00023A099006F008001970901006C
:10007000938949FB1309B00023A029016F004000B8
:100080006F0000001301C1FE2320910023222101F3
:100090002324310123264101232811009304000069
:1000A0001309050093890500130A000063884901BC
:1000B000B38424019389F9FF6FF05FFF1385040077
:1000C000832401000329410083298100032AC10000
:1000D0008320010113014101678000001301C1FD6C
:1000E00023209100232221012324310123264101D1
:1000F00023285101232A6101232C7101232E810120
:1001000023201102130C0500938405001309060037
:1001100093090000130A0000635A2A03931A2A0065
:10012000B38A9A0083AB0A00931A2A00B30A5C01CF
:1001300003AB0A0013050B0093850B00EFF09FF44F
:10014000B389A900130A1A006FF01FFD1385090077
:10015000832401000329410083298100032AC1006F
:10016000832A0101032B4101832B8101032CC1014F
:0C0170008320010213014102678000009F
:020000021000EC
:1000000003000000050000000100000009000000DE
:1000100001000000060000000200000003000000D4
:00000001FF
