:10000000970501009385050013860500EF00800326
:1000100093040500970501009385C5FF138605002D
:10002000EF004002130905009309A00063D42401E6
:100030009309B000170A0100130ACAFE23203A01EF
:100040006F0000009302300013030000939322001E
:10005000338E7500B30E7600032F0E0083AF0E00B3
:10006000130181FD232211022320C102232EB1009E
:10007000232CF101232AE1012328D1012326C101E8
:1000800023247100232261002320510093050F00D7
:1000900013860F00EF004004832201000323410078
:1000A00083238100032EC100832E0101032F410110
:1000B000832F81018325C101032601028320410290
:1000C000130181023303A3009382F2FFE3D002F80D
:1000D0001305030067800000130500006358C0008B
:1000E0003305B5001306F6FF6FF05FFF6780000071
:020000021000EC
:1000000003000000050000000100000009000000DE
:1000100001000000060000000200000003000000D4
:00000001FF
